:020000040000FA
:0400000014EF06F003
:1006000000496E69742053697374656D61004665B5
:100610006368616E646F200046656368616E646F35
:1006200000416272696E646F0000DF0E216E060E7B
:10063000C16EC30E926E000E936E000E946E000E8D
:10064000956E000E966E70EC05F00DEC06F003EC66
:1006500006F0010EDBEC05F0800EDBEC05F0010E80
:10066000086E060E096E9EEC05F0000E54EC04F0C8
:1006700001C008F002C009F0000E0B6E0A0E0A6EEF
:10068000F0EC05F008C00EF009C00FF0000E116E7E
:10069000CC0E106E9CEC04F00E50206EC10EDBEC04
:1006A00005F020C015F0166A1A0E176E000E186EAF
:1006B000D0EC03F01DC022F0300E2218D8A463EF56
:1006C00003F065EF03F079EF03F0330E22606BEF78
:1006D00003F06DEF03F079EF03F05C0ED6EC04F05D
:1006E000210E086E060E096E9EEC05F08182819443
:1006F0008196350E22607FEF03F081EF03F095EFD6
:1007000003F0320E226487EF03F089EF03F095EFD8
:1007100003F05C0ED6EC04F0180E086E060E096E9F
:100720009EEC05F0818281848196360E22609BEFDB
:1007300003F09DEF03F0B1EF03F0340E2264A3EF5A
:1007400003F0A5EF03F0B1EF03F0000ED6EC04F0D8
:100750000E0E086E060E096E9EEC05F081828184F5
:1007600081861D50C6EC05F0560EC6EC05F0200E35
:10077000C6EC05F01D50C6EC05F01E50C6EC05F0A9
:100780002150C6EC05F0430EC6EC05F0000E026EDB
:100790000A0E016E0CEC05F035EF03F000EF00F0EF
:1007A00015C00EF016C00FF0270E116E100E106E51
:1007B0009CEC04F00E50300F17C0D9FF18C0DAFFC0
:1007C000DF6E20EE01F01750D9261850DA22270EDE
:1007D000046E100E036E15C001F016C002F03EEC60
:1007E00005F001C00EF002C00FF0030E116EE80E0E
:1007F000106E9CEC04F00E50300FDF6E20EE02F015
:100800001750D9261850DA22030E046EE80E036E34
:1008100015C001F016C002F03EEC05F001C00EF06C
:1008200002C00FF0000E116E640E106E9CEC04F00E
:100830000E50300FDF6E20EE03F01750D9261850FF
:10084000DA22000E046E640E036E15C001F016C0AD
:1008500002F03EEC05F001C00EF002C00FF0000EF9
:10086000116E0A0E106E9CEC04F00E50300FDF6E0D
:1008700020EE04F01750D9261850DA2215C001F0E6
:1008800016C002F0000E046E0A0E036E3EEC05F078
:100890000150300FDF6E20EE05F01750D9261850AA
:1008A000DA22000EDF6E1200076E63EF04F0010E15
:1008B000C26E7CEF04F0090EC26E7CEF04F0050EF0
:1008C000C26E7CEF04F00750036E046A0450000A05
:1008D000D8B46DEF04F07CEF04F00350000AD8B4F4
:1008E00057EF04F0010AD8B45BEF04F0030AD8B460
:1008F0005FEF04F07CEF04F0C282C2B282EF04F03A
:1009000084EF04F07DEF04F0C3CF03F0060E046E15
:10091000D8900332042E88EF04F00350C4CF05F0C2
:10092000066AD89005360636D89005360636051084
:10093000016E0650026E1200000E136E000E126E53
:1009400010501110D8B4A7EF04F0A9EF04F0D1EFC4
:1009500004F0010E146EB1EF04F0D8901036113689
:10096000142A11AEB6EF04F0B8EF04F0ADEF04F0C6
:10097000D8901236133610500E5C11500F58D8A074
:10098000C4EF04F0C6EF04F0CBEF04F010500E5E9D
:1009900011500F5A1280D89011321032142EB8EF25
:1009A00004F012C00EF013C00FF01200176E010E0B
:1009B000CB24086E096A000E092217C00AF00B6AE0
:1009C000F0EC05F008C018F009C019F018C00EF0DE
:1009D00019C00FF0000E116E190E106E9CEC04F091
:1009E0000EC018F00FC019F0FF0E1816030E1916DE
:1009F00018C015F019C016F0D89016321532D890DC
:100A0000163215321550BE6E18C015F0030E1516AD
:100A10001538F00BBD121200000E046E000E036EAE
:100A200032EF05F0000E056E280E05641AEF05F092
:100A30001CEF05F01EEF05F030EF05F0000E066E1E
:100A4000020E066426EF05F028EF05F02AEF05F008
:100A50002DEF05F0062A20EF05F0052A14EF05F02A
:100A6000034A042A0150035C02500458D8A03BEF0B
:100A700005F03DEF05F012EF05F0120003500410F1
:100A8000D8B445EF05F047EF05F06BEF05F0010E28
:100A9000056E4FEF05F0D89003360436052A04AEF4
:100AA00054EF05F056EF05F04BEF05F00350015CF5
:100AB00004500258D8A05FEF05F061EF05F065EF34
:100AC00005F00350015E0450025AD89004320332FC
:100AD000052E56EF05F001C001F002C002F0120031
:100AE00084928494000E026E140E016E0CEC05F0DC
:100AF0008482380EDBEC05F0000E026E050E016EEE
:100B00000CEC05F0380EDBEC05F0000E026E010E69
:100B1000016E0CEC05F0380EDBEC05F0080EDBEC9A
:100B200005F00F0EDBEC05F0010EDBEC05F0380EE6
:100B3000DBEC05F0800EDBEC05F01200000E0C6E15
:100B4000B1EF05F00C5008240A6E000E09200B6E60
:100B50000AC0F6FF0BC0F7FF0800F550C6EC05F021
:100B60000C2A0C5008240A6E000E09200B6E0AC0D5
:100B7000F6FF0BC0F7FF0800F5500009D8A4C3EF3B
:100B800005F0C5EF05F0A2EF05F01200076E8482B4
:100B9000075019EC06F08484000E026E030E016EFD
:100BA0000CEC05F08492000E026E030E016E0CEC4C
:100BB00005F084821200076E8482075019EC06F05B
:100BC0008494000E026E030E016E0CEC05F084920C
:100BD000000E026E030E016E0CEC05F08482120012
:100BE00008500A02F3CF0CF0F4CF0DF008500B02BE
:100BF000F3500D2609500A02F3500D260CC008F0E0
:100C00000DC009F0120094929494030ECA12CA8483
:100C10000C0EBD120C0EBA121200010EC26E0B0E9B
:100C2000C16E010EC06E1200000EF86E000115EFCD
:0A0C300003F0016E01C083FF120003
:020000040020DA
:08000000FFFFFFFFFFFFFFFF00
:020000040030CA
:0E000000FF027100FF8380FF0FC00FE00F4072
:00000001FF
